:100000000C942A000C9434000C9434000C943400AA
:100010000C9434000C9434000C9434000C94340090
:100020000C9434000C9434000C9434000C94340080
:100030000C9434000C9434000C9434000C94340070
:100040000C9434000C9434000C9434000C94340060
:100050000C94340011241FBECFE5D4E0DEBFCDBF29
:100060000E9450000C9478000C9400008AB38E7F9C
:100070008ABB80E487B983E886B9089586B1806435
:1000800086B93699FECF24B165B170E0762F662728
:10009000CB01770FAA0BBB0BBC01CD01622B0895DE
:1000A0000E9463000E9436000E943E00862F0E943C
:1000B00074002FEF8FE796E1215080409040E1F7E8
:1000C00000C00000F1CF81B3826081BB81B38E7F1D
:1000D00081BB80B58F7780BD10BC87E089B988E986
:1000E0008AB986E880BD08955D9BFECF8CB90895DE
:0400F000F894FFCFB2
:00000001FF
